{
  "contractName": "ProxyRegistry",
  "abi": [
    {
      "inputs": [
        {
          "internalType": "address",
          "name": "",
          "type": "address"
        }
      ],
      "name": "proxies",
      "outputs": [
        {
          "internalType": "contract OwnableDelegateProxy",
          "name": "",
          "type": "address"
        }
      ],
      "stateMutability": "view",
      "type": "function"
    }
  ],
  "bytecode": "0x608060405234801561001057600080fd5b50610101806100206000396000f3fe6080604052348015600f57600080fd5b506004361060285760003560e01c8063c455279114602d575b600080fd5b606c60048036036020811015604157600080fd5b81019080803573ffffffffffffffffffffffffffffffffffffffff1690602001909291905050506098565b604051808273ffffffffffffffffffffffffffffffffffffffff16815260200191505060405180910390f35b60006020528060005260406000206000915054906101000a900473ffffffffffffffffffffffffffffffffffffffff168156fea264697066735822122020a1a34572c5427175ec99c7be3e89af1496a4fd5f0d4c70258d24c4b0cd26f464736f6c63430007060033",
  "immutableReferences": {},
  "source": "// SPDX-License-Identifier: MIT\npragma solidity >=0.5.0 <0.8.0;\n\nimport '@openzeppelin/contracts/token/ERC721/ERC721.sol';\nimport '@openzeppelin/contracts/access/Ownable.sol';\nimport '@openzeppelin/contracts/math/SafeMath.sol';\nimport '@openzeppelin/contracts/utils/Strings.sol';\n\ncontract OwnableDelegateProxy { }\n\ncontract ProxyRegistry {\n    mapping(address => OwnableDelegateProxy) public proxies;\n}\n\ncontract ERC721Token is ERC721, Ownable {\n  using Strings for string;\n\n  address proxyRegistryAddress;\n  uint256 private _currentTokenId = 0;\n\n  constructor(string memory _name, string memory _symbol, address _proxyRegistryAddress) ERC721(_name, _symbol) {\n    proxyRegistryAddress = _proxyRegistryAddress;\n  }\n\n  /**\n    * @dev Mints a token to an address with a tokenURI.\n    * @param _to address of the future owner of the token\n    */\n  function mintTo(address _to) public onlyOwner {\n    uint256 newTokenId = _getNextTokenId();\n    _safeMint(_to, newTokenId);\n    _incrementTokenId();\n  }\n\n  /**\n    * @dev calculates the next token ID based on value of _currentTokenId \n    * @return uint256 for the next token ID\n    */\n  function _getNextTokenId() private view returns (uint256) {\n    (bool _overflow, uint256 _sum) = SafeMath.tryAdd(_currentTokenId, 1);\n    assert(!_overflow);\n    return _sum;\n  }\n\n  /**\n    * @dev increments the value of _currentTokenId \n    */\n  function _incrementTokenId() private  {\n    _currentTokenId++;\n  }\n\n  function baseTokenURI() virtual public view returns (string memory){}\n\n  function tokenURI(uint256 _tokenId) virtual override public view returns (string memory) {\n    return string(abi.encodePacked(baseTokenURI(), Strings.toString(_tokenId)));\n  }\n\n  /**\n   * Override isApprovedForAll to whitelist user's OpenSea proxy accounts to enable gas-less listings.\n   */\n  function isApprovedForAll(\n    address owner,\n    address operator\n  )\n    override\n    public\n    view\n    returns (bool)\n  {\n    // Whitelist OpenSea proxy contract for easy trading.\n    ProxyRegistry proxyRegistry = ProxyRegistry(proxyRegistryAddress);\n    if (address(proxyRegistry.proxies(owner)) == operator) {\n        return true;\n    }\n\n    return super.isApprovedForAll(owner, operator);\n  }\n}",
  "sourcePath": "/home/joy/blockchain-designPatterns/blockchain-design-patterns/lab3-nftFactory/contracts/ERC721Token.sol",
  "compiler": {
    "name": "solc",
    "version": "0.7.6+commit.7338295f.Emscripten.clang"
  },
  "schemaVersion": "3.3.3",
  "updatedAt": "2021-03-03T00:35:07.009Z",
  "devdoc": {
    "kind": "dev",
    "methods": {},
    "version": 1
  },
  "userdoc": {
    "kind": "user",
    "methods": {},
    "version": 1
  }
}