{
  "contractName": "StockOracle",
  "abi": [
    {
      "inputs": [],
      "payable": false,
      "stateMutability": "nonpayable",
      "type": "constructor"
    },
    {
      "constant": false,
      "inputs": [
        {
          "internalType": "bytes4",
          "name": "symbol",
          "type": "bytes4"
        },
        {
          "internalType": "uint256",
          "name": "price",
          "type": "uint256"
        },
        {
          "internalType": "uint256",
          "name": "volume",
          "type": "uint256"
        }
      ],
      "name": "setStock",
      "outputs": [],
      "payable": false,
      "stateMutability": "nonpayable",
      "type": "function"
    },
    {
      "constant": true,
      "inputs": [
        {
          "internalType": "bytes4",
          "name": "symbol",
          "type": "bytes4"
        }
      ],
      "name": "getStockPrice",
      "outputs": [
        {
          "internalType": "uint256",
          "name": "",
          "type": "uint256"
        }
      ],
      "payable": false,
      "stateMutability": "view",
      "type": "function"
    },
    {
      "constant": true,
      "inputs": [
        {
          "internalType": "bytes4",
          "name": "symbol",
          "type": "bytes4"
        }
      ],
      "name": "getStockVolume",
      "outputs": [
        {
          "internalType": "uint256",
          "name": "",
          "type": "uint256"
        }
      ],
      "payable": false,
      "stateMutability": "view",
      "type": "function"
    }
  ],
  "bytecode": "0x608060405234801561001057600080fd5b50600080546001600160a01b03191633179055610210806100326000396000f3fe608060405234801561001057600080fd5b50600436106100415760003560e01c80630b1dc17c146100465780638604e3db1461007f578063945aaa44146100a6575b600080fd5b61006d6004803603602081101561005c57600080fd5b50356001600160e01b0319166100db565b60408051918252519081900360200190f35b61006d6004803603602081101561009557600080fd5b50356001600160e01b0319166100fb565b6100d9600480360360608110156100bc57600080fd5b506001600160e01b03198135169060208101359060400135610117565b005b6001600160e01b0319166000908152600160208190526040909120015490565b6001600160e01b03191660009081526001602052604090205490565b6000546001600160a01b031633146101605760405162461bcd60e51b81526004018080602001828103825260228152602001806101ba6022913960400191505060405180910390fd5b61016861019f565b5060408051808201825292835260208084019283526001600160e01b03199094166000908152600194859052209151825551910155565b60405180604001604052806000815260200160008152509056fe4f6e6c79206f776e65722063616e2063616c6c20746869732066756e6374696f6e2ea265627a7a723158202a256c342a36e4121296a686c3c8dff2bd30e0fdf745d8fbcfd74b5239bd2f1d64736f6c63430005100032",
  "source": "// SPDX-License-Identifier: MIT\npragma solidity >=0.4.22 <0.7.0;\n\ncontract StockOracle {\n\taddress owner;\n\tconstructor() public {\n\t\towner = msg.sender;\n\t}\n\t// quote structure\n\tstruct stock {\n\t\tuint price;\n\t\tuint volume;\n\t}\n\n\tmapping( bytes4 => stock) stockQuote;\n\n\t// address oracleOwner;\n\tmodifier onlyOwner {\n\t\trequire(\n\t\t\tmsg.sender == owner,\n\t\t\t\"Only owner can call this function.\"\n\t\t);\n\t\t_;\n\t}\n\n\t// Set the value of a stock\n\tfunction setStock(bytes4 symbol, uint price, uint volume) onlyOwner public {\n\t\tstock memory _Stock = stock({price: price, volume: volume});\n\t\tstockQuote[symbol] = _Stock;\n\t}\n\n\t// Get the value of a stock\n\tfunction getStockPrice(bytes4 symbol) public view returns (uint) {\n\t\treturn stockQuote[symbol].price;\n\t}\n\n\t// Get the value of volume traded for a stock\n\tfunction getStockVolume(bytes4 symbol) public view returns (uint) {\n\t\treturn stockQuote[symbol].volume;\n\t}\n}",
  "sourcePath": "/home/joy/blockchain-designPatterns/blockchain-design-patterns/lab1-oracle/stockContract/contracts/StockOracle.sol",
  "compiler": {
    "name": "solc",
    "version": "0.5.16+commit.9c3226ce.Emscripten.clang"
  },
  "schemaVersion": "3.3.3",
  "updatedAt": "2021-02-13T22:43:58.909Z",
  "networkType": "ethereum",
  "devdoc": {
    "methods": {}
  },
  "userdoc": {
    "methods": {}
  }
}